{
  "address": "0xe3669515CE2F678a9f680ac5B8dAb8e0f36F0cd3",
  "abi": [
    {
      "inputs": [],
      "name": "SimpleBank__AlreadyEnrolled",
      "type": "error"
    },
    {
      "inputs": [],
      "name": "SimpleBank__InternalError",
      "type": "error"
    },
    {
      "inputs": [],
      "name": "SimpleBank__NoEnoughFundsAvailable",
      "type": "error"
    },
    {
      "inputs": [],
      "name": "SimpleBank__NotAClient",
      "type": "error"
    },
    {
      "anonymous": false,
      "inputs": [
        {
          "indexed": false,
          "internalType": "address",
          "name": "accountAddress",
          "type": "address"
        },
        {
          "indexed": false,
          "internalType": "uint256",
          "name": "amount",
          "type": "uint256"
        }
      ],
      "name": "LogDepositMade",
      "type": "event"
    },
    {
      "anonymous": false,
      "inputs": [
        {
          "indexed": false,
          "internalType": "address",
          "name": "accountAddress",
          "type": "address"
        }
      ],
      "name": "LogEnrolled",
      "type": "event"
    },
    {
      "anonymous": false,
      "inputs": [
        {
          "indexed": false,
          "internalType": "address",
          "name": "accountAddress",
          "type": "address"
        },
        {
          "indexed": false,
          "internalType": "uint256",
          "name": "withdrawAmount",
          "type": "uint256"
        },
        {
          "indexed": false,
          "internalType": "uint256",
          "name": "newBalance",
          "type": "uint256"
        }
      ],
      "name": "LogWithdrawal",
      "type": "event"
    },
    {
      "stateMutability": "nonpayable",
      "type": "fallback"
    },
    {
      "inputs": [],
      "name": "deposit",
      "outputs": [
        {
          "internalType": "uint256",
          "name": "",
          "type": "uint256"
        }
      ],
      "stateMutability": "payable",
      "type": "function"
    },
    {
      "inputs": [],
      "name": "enroll",
      "outputs": [
        {
          "internalType": "bool",
          "name": "",
          "type": "bool"
        }
      ],
      "stateMutability": "nonpayable",
      "type": "function"
    },
    {
      "inputs": [],
      "name": "getBalance",
      "outputs": [
        {
          "internalType": "uint256",
          "name": "",
          "type": "uint256"
        }
      ],
      "stateMutability": "view",
      "type": "function"
    },
    {
      "inputs": [],
      "name": "owner",
      "outputs": [
        {
          "internalType": "address",
          "name": "",
          "type": "address"
        }
      ],
      "stateMutability": "view",
      "type": "function"
    },
    {
      "inputs": [
        {
          "internalType": "uint256",
          "name": "withdrawAmount",
          "type": "uint256"
        }
      ],
      "name": "withdraw",
      "outputs": [
        {
          "internalType": "uint256",
          "name": "",
          "type": "uint256"
        }
      ],
      "stateMutability": "nonpayable",
      "type": "function"
    }
  ],
  "transactionHash": "0x8e09f4d92876c3fd80a783d1db8fedac956386beb5cbc456769498e454a8592f",
  "args": [],
  "numDeployments": 1,
  "solcInputHash": "9fe4020ade933507eaab11576b8994de",
  "bytecode": "0x608060405233600260006101000a81548173ffffffffffffffffffffffffffffffffffffffff021916908373ffffffffffffffffffffffffffffffffffffffff16021790555034801561005157600080fd5b50610a20806100616000396000f3fe60806040526004361061004e5760003560e01c806312065fe01461005e5780632e1a7d4d146100895780638da5cb5b146100c6578063d0e30db0146100f1578063e65f2a7e1461010f5761004f565b5b34801561005b57600080fd5b50005b34801561006a57600080fd5b5061007361013a565b6040516100809190610780565b60405180910390f35b34801561009557600080fd5b506100b060048036038101906100ab91906107cc565b61020a565b6040516100bd9190610780565b60405180910390f35b3480156100d257600080fd5b506100db6104ca565b6040516100e8919061083a565b60405180910390f35b6100f96104f0565b6040516101069190610780565b60405180910390f35b34801561011b57600080fd5b5061012461064c565b6040516101319190610870565b60405180910390f35b6000801515600160003373ffffffffffffffffffffffffffffffffffffffff1673ffffffffffffffffffffffffffffffffffffffff16815260200190815260200160002060009054906101000a900460ff16151514156101c6576040517f0baecd5700000000000000000000000000000000000000000000000000000000815260040160405180910390fd5b6000803373ffffffffffffffffffffffffffffffffffffffff1673ffffffffffffffffffffffffffffffffffffffff16815260200190815260200160002054905090565b6000600160003373ffffffffffffffffffffffffffffffffffffffff1673ffffffffffffffffffffffffffffffffffffffff16815260200190815260200160002060009054906101000a900460ff1661028f576040517f0baecd5700000000000000000000000000000000000000000000000000000000815260040160405180910390fd5b6000803373ffffffffffffffffffffffffffffffffffffffff1673ffffffffffffffffffffffffffffffffffffffff16815260200190815260200160002054821115610307576040517f5da76ec000000000000000000000000000000000000000000000000000000000815260040160405180910390fd5b600033905060008173ffffffffffffffffffffffffffffffffffffffff1684604051610332906108bc565b60006040518083038185875af1925050503d806000811461036f576040519150601f19603f3d011682016040523d82523d6000602084013e610374565b606091505b505090508015610493576000846000803373ffffffffffffffffffffffffffffffffffffffff1673ffffffffffffffffffffffffffffffffffffffff168152602001908152602001600020546103ca9190610900565b9050806000803373ffffffffffffffffffffffffffffffffffffffff1673ffffffffffffffffffffffffffffffffffffffff168152602001908152602001600020819055507ff9226daf630542048a23086c6af599511aac100ec8f532793cc9697d061bed7e33866000803373ffffffffffffffffffffffffffffffffffffffff1673ffffffffffffffffffffffffffffffffffffffff1681526020019081526020016000205460405161048093929190610934565b60405180910390a18093505050506104c5565b6040517f4fa4555500000000000000000000000000000000000000000000000000000000815260040160405180910390fd5b919050565b600260009054906101000a900473ffffffffffffffffffffffffffffffffffffffff1681565b6000600160003373ffffffffffffffffffffffffffffffffffffffff1673ffffffffffffffffffffffffffffffffffffffff16815260200190815260200160002060009054906101000a900460ff16610575576040517f0baecd5700000000000000000000000000000000000000000000000000000000815260040160405180910390fd5b60008060003373ffffffffffffffffffffffffffffffffffffffff1673ffffffffffffffffffffffffffffffffffffffff168152602001908152602001600020549050600034826105c6919061096b565b9050806000803373ffffffffffffffffffffffffffffffffffffffff1673ffffffffffffffffffffffffffffffffffffffff168152602001908152602001600020819055507fa8126f7572bb1fdeae5b5aa9ec126438b91f658a07873f009d041ae690f3a193333460405161063c9291906109c1565b60405180910390a1809250505090565b6000600160003373ffffffffffffffffffffffffffffffffffffffff1673ffffffffffffffffffffffffffffffffffffffff16815260200190815260200160002060009054906101000a900460ff16156106d2576040517fbed356df00000000000000000000000000000000000000000000000000000000815260040160405180910390fd5b60018060003373ffffffffffffffffffffffffffffffffffffffff1673ffffffffffffffffffffffffffffffffffffffff16815260200190815260200160002060006101000a81548160ff0219169083151502179055507f990c442e6adb818b8fa7db3cf1023decd07f7b66e5306928c7ed527d974192bb33604051610758919061083a565b60405180910390a16001905090565b6000819050919050565b61077a81610767565b82525050565b60006020820190506107956000830184610771565b92915050565b600080fd5b6107a981610767565b81146107b457600080fd5b50565b6000813590506107c6816107a0565b92915050565b6000602082840312156107e2576107e161079b565b5b60006107f0848285016107b7565b91505092915050565b600073ffffffffffffffffffffffffffffffffffffffff82169050919050565b6000610824826107f9565b9050919050565b61083481610819565b82525050565b600060208201905061084f600083018461082b565b92915050565b60008115159050919050565b61086a81610855565b82525050565b60006020820190506108856000830184610861565b92915050565b600081905092915050565b50565b60006108a660008361088b565b91506108b182610896565b600082019050919050565b60006108c782610899565b9150819050919050565b7f4e487b7100000000000000000000000000000000000000000000000000000000600052601160045260246000fd5b600061090b82610767565b915061091683610767565b925082821015610929576109286108d1565b5b828203905092915050565b6000606082019050610949600083018661082b565b6109566020830185610771565b6109636040830184610771565b949350505050565b600061097682610767565b915061098183610767565b9250827fffffffffffffffffffffffffffffffffffffffffffffffffffffffffffffffff038211156109b6576109b56108d1565b5b828201905092915050565b60006040820190506109d6600083018561082b565b6109e36020830184610771565b939250505056fea2646970667358221220ff68d85db5714d3e38c7f94de54dfa39bd534b15756687f146bcb78cc253cbed64736f6c63430008090033",
  "devdoc": {
    "kind": "dev",
    "methods": {},
    "version": 1
  },
  "userdoc": {
    "kind": "user",
    "methods": {},
    "version": 1
  },
  "storageLayout": {
    "storage": [
      {
        "astId": 18,
        "contract": "contracts/SimpleBank.sol:SimpleBank",
        "label": "balance",
        "offset": 0,
        "slot": "0",
        "type": "t_mapping(t_address,t_uint256)"
      },
      {
        "astId": 22,
        "contract": "contracts/SimpleBank.sol:SimpleBank",
        "label": "enrolled",
        "offset": 0,
        "slot": "1",
        "type": "t_mapping(t_address,t_bool)"
      },
      {
        "astId": 26,
        "contract": "contracts/SimpleBank.sol:SimpleBank",
        "label": "owner",
        "offset": 0,
        "slot": "2",
        "type": "t_address"
      }
    ],
    "types": {
      "t_address": {
        "encoding": "inplace",
        "label": "address",
        "numberOfBytes": "20"
      },
      "t_bool": {
        "encoding": "inplace",
        "label": "bool",
        "numberOfBytes": "1"
      },
      "t_mapping(t_address,t_bool)": {
        "encoding": "mapping",
        "key": "t_address",
        "label": "mapping(address => bool)",
        "numberOfBytes": "32",
        "value": "t_bool"
      },
      "t_mapping(t_address,t_uint256)": {
        "encoding": "mapping",
        "key": "t_address",
        "label": "mapping(address => uint256)",
        "numberOfBytes": "32",
        "value": "t_uint256"
      },
      "t_uint256": {
        "encoding": "inplace",
        "label": "uint256",
        "numberOfBytes": "32"
      }
    }
  }
}